:020000040800F2
:100000008004002065000008E9000008E9000008FD
:10001000E9000008E9000008E9000008E90000081C
:10002000E9000008E9000008E9000008E90000080C
:10003000E9000008E9000008E9000008E9000008FC
:10004000E9000008E9000008E9000008E9000008EC
:10005000E900000880B400AF00231846BD465DF8F3
:10006000047B704780B586B000AF1A4A1A4BD31A8A
:100070007B60194B7B61194B3B610023FB600AE0FD
:100080003A69531C3B617B69591C796112781A707B
:10009000FB680133FB60FA687B689A42F0D3104A30
:1000A000104BD31A7B600F4B7B610023BB6007E0D2
:1000B0007B695A1C7A6100221A70BB680133BB60ED
:1000C000BA687B689A42F3D3FFF7C4FF00BF1837C2
:1000D000BD4680BD2400002004000020E00B000885
:1000E000340000202400002080B400AFFEE70000B0
:1000F00080B483B000AF786039607A683B689A4218
:1001000003D0064B02221A6002E0044B01221A605F
:1001100000BF0C37BD465DF8047B7047000000202F
:1001200080B400AF72B600BFBD465DF8047B704777
:1001300080B400AF62B600BFBD465DF8047B704777
:1001400080B483B000AF03460A46FB711346BB710F
:10015000FB7903F01F030C49FA795209D2B2104619
:10016000012202FA03F341F820300749FB79BA79FA
:100170001201D2B20B4483F8002300BF0C37BD46F6
:100180005DF8047B704700BF00E100E080B483B0FD
:1001900000AF0346FB71FB7903F01F030849FA79AE
:1001A0005209D2B2104601229A4000F1200341F8D0
:1001B000232000BF0C37BD465DF8047B704700BFAD
:1001C00000E100E080B500AFFFF7B2FF024800F0A9
:1001D00067FB00BF80BD00BF0090D00380B483B038
:1001E00000AF0346FB710A4B9B68094A23F00303E7
:1001F0009360074B9A68FB7903F0030304491343A8
:100200008B6000BF0C37BD465DF8047B704700BFB4
:100210000038024080B400AF054B9B689B08DBB2FE
:1002200003F00303DBB21846BD465DF8047B70475C
:100230000038024080B483B000AF0346FB710A4B24
:100240009B68094A23F0F0039360074B9A68FB7997
:100250001B01DBB2044913438B6000BF0C37BD4662
:100260005DF8047B704700BF0038024080B483B063
:1002700000AF294B9B681B0903F00F030F2B40D8DD
:1002800001A252F823F000BFC902000803030008CE
:100290000303000803030008030300080303000826
:1002A0000303000803030008CF020008D50200087A
:1002B000DB020008E1020008E7020008ED02000886
:1002C000F3020008FB0200080123FB801CE002236C
:1002D000FB8019E00423FB8016E00823FB8013E079
:1002E0001023FB8010E04023FB800DE08023FB8087
:1002F0000AE04FF48073FB8006E04FF40073FB804C
:1003000002E00123FB8000BFFB8818460C37BD4686
:100310005DF8047B704700BF0038024080B483B0B2
:1003200000AF0346FB710A4B9B68094A23F4E05374
:100330009360074B9A68FB799B0203F4E0530449EE
:1003400013438B6000BF0C37BD465DF8047B7047DC
:100350000038024080B483B000AF184B9B689B0A02
:1003600003F00703072B22D801A252F823F000BFA5
:1003700091030008AF030008AF030008AF030008B3
:10038000970300089D030008A3030008A9030008C1
:100390000123FB710BE00223FB7108E00423FB71D6
:1003A00005E00823FB7102E01023FB7100BFFB791D
:1003B00018460C37BD465DF8047B70470038024094
:1003C00080B483B000AF0346FB710A4B9B68094AB7
:1003D00023F460439360074B9A68FB795B039BB2FD
:1003E000044913438B6000BF0C37BD465DF8047BA6
:1003F000704700BF0038024080B483B000AF184B94
:100400009B685B0B03F00703072B22D801A252F86D
:1004100023F000BF3504000853040008530400080B
:10042000530400083B040008410400084704000886
:100430004D0400080123FB710BE00223FB7108E06F
:100440000423FB7105E00823FB7102E01023FB711C
:1004500000BFFB7918460C37BD465DF8047B70473A
:100460000038024080B485B000AF0346FB80FB88B3
:10047000B3F5807F48D0B3F5807F48DC802B40D037
:10048000802B44DC102B27DC002B40DD013B0F2BA5
:100490003DD801A252F823F0DF040008E50400086B
:1004A0000F050008EB0400080F0500080F05000801
:1004B0000F050008F10400080F0500080F050008EB
:1004C0000F0500080F0500080F0500080F050008BC
:1004D0000F050008F7040008402B0FD017E0002399
:1004E000FB7317E00823FB7314E00923FB7311E08F
:1004F0000A23FB730EE00B23FB730BE00C23FB734F
:1005000008E00D23FB7305E00E23FB7302E00023DC
:10051000FB7300BFFB7B18461437BD465DF8047BB8
:10052000704700BF80B485B000AF0346FB71FB7914
:10053000013B0F2B31D801A252F823F07D050008B2
:10054000830500089B050008890500089B05000835
:100550009B0500089B0500088F0500089B05000807
:100560009B0500089B0500089B0500089B050008EB
:100570009B0500089B050008950500080023FB73F8
:100580000EE00423FB730BE00523FB7308E0062356
:10059000FB7305E00723FB7302E00023FB7300BF3E
:1005A000FB7B18461437BD465DF8047B704700BFDF
:1005B00090B587B000AF786039603B68BB60FFF7EB
:1005C00055FE03461A463B68B3FBF2F3FB60FC683A
:1005D000FFF7C0FE0346B4FBF3F33B613C69FFF752
:1005E0000BFF0346B4FBF3F37B617B681C4607F10A
:1005F00008030FCB84E80F0078681C37BD4690BD18
:1006000080B485B000AFB9607A603B600346FB738D
:100610007B689A01BB681A433B685B08013B1B047B
:100620001A43BB691B061343FA7B92051146044A21
:100630000B43536000BF1437BD465DF8047B704721
:100640000038024080B485B000AF0023FB60022375
:10065000BB6000237B6002233B60164B5B6803F4A6
:100660008003002B01D0144B00E0144B7B60114B36
:100670005B6803F03F033B600E4B5B689B09C3F371
:1006800008037A6803FB02F23B68B2FBF3F3FB60FA
:10069000084B5B681B0C03F0030301335B00BB607A
:1006A000FA68BB68B2FBF3F318461437BD465DF831
:1006B000047B70470038024000127A000024F400E6
:1006C00080B485B000AF0346FB71FB791F2B02D8C5
:1006D0000023FB7313E0FB791F2B05D9FB793F2B1C
:1006E00002D80123FB730AE0FB793F2B05D9FB7984
:1006F0005F2B02D80223FB7301E00323FB73FB7B18
:1007000018461437BD465DF8047B704780B485B049
:1007100000AF03460A46FB711346BB71FB79FB73BE
:10072000BB79012B0AD10D4B1B6BFA7B012101FA1E
:1007300002F21146094A0B43136309E0074B1B6998
:10074000FA7B012101FA02F21146044A0B431361BC
:1007500000BF1437BD465DF8047B70470038024087
:1007600080B485B000AF03460A46FB711346BB71E7
:10077000FB79203BFB73BB79012B0AD10D4B5B6BE3
:10078000FA7B012101FA02F211460A4A0B43536334
:1007900009E0084B5B69FA7B012101FA02F211467C
:1007A000044A0B43536100BF1437BD465DF8047B18
:1007B000704700BF0038024080B485B000AF0346E8
:1007C0000A46FB711346BB71FB79403BFB73BB7957
:1007D000012B0AD10D4B1B6CFA7B012101FA02F2AD
:1007E00011460A4A0B43136409E0084B1B6AFA7B63
:1007F000012101FA02F21146044A0B43136200BFC1
:100800001437BD465DF8047B704700BF00380240D6
:1008100080B485B000AF03460A46FB711346BB7136
:10082000FB79603BFB73BB79012B0AD10D4B5B6CF1
:10083000FA7B012101FA02F211460A4A0B43536482
:1008400009E0084B5B6AFA7B012101FA02F21146CA
:10085000044A0B43536200BF1437BD465DF8047B66
:10086000704700BF0038024080B584B000AF034637
:100870000A46FB711346BB71FB791846FFF720FF50
:100880000346FB73FB7B054A52F82330B979FA79AA
:100890001046984700BF1037BD4680BD04000020B9
:1008A00090B58FB002AF786100233B627A692B4B21
:1008B000A3FB02139B0C2A4901FB03F3D31A002B61
:1008C00045D17B69274A934241D80220FFF786FC35
:1008D0007B69224AA2FB03239B0C7B610823FB61FB
:1008E0000223BB621AE0BB6A5B087A6902FB03F36E
:1008F000BF2B10D9BB6A5B087A6902FB03F3B3F51F
:10090000D87F08D8BB6A5A087B6902FB03F37B6275
:10091000BB6AFB6205E0BB6A0233BB62BB6A3F2B6A
:10092000E1D902230093FB697A6AF96A0020FFF794
:1009300067FEFFF787FE38620B4C3B46396A184664
:10094000FFF736FE3B460FCB84E80F0001E00023A3
:100950003B623B6A18463437BD4690BD83DE1B437D
:1009600040420F0000BD01052400002080B588B082
:1009700000AF03463960FB7100F098F8B8610023BE
:10098000FB613A68BB699A4201D900236EE0BA69FB
:100990003B68B2FBF3F3FB75FB791846FFF790FE5B
:1009A0000346BB75FA7DFB7D013B1340002B01D054
:1009B00000235BE000F0B4F838613A693B68B2FBB1
:1009C000F3F3FB73FA7BFB7B013B1340002B01D05D
:1009D00000234BE0BB7D032B32D0032B44DC012BE7
:1009E00002DC002B03DA3FE0022B15D03CE0FB7D5C
:1009F0009BB21846FFF736FD03461846FFF71AFC70
:100A0000FFF734FC03461A46BB69B3FBF2F3FB6104
:100A1000184AFB69536028E0FB7B1846FFF782FD0C
:100A200003461846FFF77AFCFFF794FC03461A4684
:100A30003B69B3FBF2F3FB610E4AFB69936014E080
:100A4000FB7B1846FFF76EFD03461846FFF7B8FC20
:100A5000FFF7D2FC03461A463B69B3FBF2F3FB6196
:100A6000044AFB69D36000E000BFFB6918462037E9
:100A7000BD4680BD2400002080B584B000AF034691
:100A8000FB710023FB60FB791846FFF719FE034654
:100A9000FB72FB7A044A52F823309847F860FB68EF
:100AA00018461037BD4680BD1400002090B587B0B1
:100AB00000AF184B1B68002B02D0164B1B6825E0BB
:100AC000154B7B61FFF7A6FB0346FB74FB7C022BF7
:100AD0000CD0022B0EDC002B02D0012B03D009E03E
:100AE0000D4B7B6107E00D4B7B6104E0FFF7AAFD36
:100AF000786100E000BF074C3B4679691846FFF774
:100B000057FD3B460FCB84E80F007B6918461C3726
:100B1000BD4690BD240000200024F40000127A009D
:100B200080B582B000AFFFF7C1FF38600B4B5B6848
:100B3000002B03D0094B5B687B600AE0FFF796FB54
:100B400003461A463B68B3FBF2F37B60034A7B68BB
:100B500053607B6818460837BD4680BD24000020DE
:100B600080B582B000AFFFF7DBFF38600B4B9B68AE
:100B7000002B03D0094B9B687B600AE0FFF7EAFB80
:100B800003461A463B68B3FBF2F37B60034A7B687B
:100B900093607B6818460837BD4680BD240000205E
:100BA00080B582B000AFFFF7BBFF38600B4BDB684E
:100BB000002B03D0094BDB687B600AE0FFF71CFCCD
:100BC00003461A463B68B3FBF2F37B60034A7B683B
:100BD000D3607B6818460837BD4680BD24000020DE
:100BE0000D07000861070008B90700081108000890
:100BF000210B0008210B0008610B0008A10B000865
:020000042000DA
:0400000000000000FC
:04000005080000658A
:00000001FF
